:100000000C9491300C94AF300C94AF300C94AF3012
:100010000C94AF300C94AF300C94AF300C94AF30E4
:100020000C94AF300C94AF300C94FE3C0C94AF3079
:100030000C94AF300C94AF300C94AF300C94AF30C4
:100040000C94AF300C94AF300C94AF300C94AF30B4
:100050000C94AF300C94AF300C94AF300C948432CD
:100060000C94AF300C94AF300C94AF300C94AF3094
:100070000C94AF300C94AF300C94AF300C94AF3084
:100080000C94AF300C94AF300C94AF300C94AF3074
:100090000C94AF300C94AF3005010904A101A1000C
:1000A00005091901290A950A75018102950175064C
:1000B0008103C0A1009540750809019102C0C012DA
:1000C00001100100000008EB03432001000102DCE5
:1000D0000109022200010100C032090400000103ED
:1000E00000000009211101000122270007058103FA
:1000F000080005040309041A035200750070006526
:100100000072007400200053006D006900740068E4
:100110000000003803410073007300650074007430
:10012000006F00200043006F007200730061002028
:100130000052006100630065002D0063006F006DD8
:10014000007000750074006500720000000000007F
:10015000000000005F00000003000300143E143E96
:1001600014242A7F2A1243330866613649552250E7
:100170000005030000001C2241000041221C001465
:10018000083E081408083E0808005030000008081F
:10019000080808006060000020100804023E514971
:1001A000453E0004027F00426151494622414949CF
:1001B000361814127F1027454545393E49494932C2
:1001C00001017109073649494936264949493E0026
:1001D0003636000000563600000814224100141480
:1001E000141414004122140802015109063E415919
:1001F000555E7E0909097E7F494949363E414141A4
:10020000227F4141413E7F494949417F0909090116
:100210003E4141493A7F0808087F00417F41003054
:100220004040403F7F081422417F404040407F02D1
:100230000C027F7F0204087F3E4141413E7F090955
:1002400009061E2121215E7F0909097626494949AF
:100250003201017F01013F4040403F1F2040201FED
:100260007F2010207F41221C22410708700807616F
:1002700051494543007F410000020408102000005E
:10028000417F00040201020440404040400001025E
:10029000040020545454787F44444438384444443F
:1002A00044384444447F385454541804047E0505AB
:1002B000085454543C7F0804047800447D400020D6
:1002C00040443D007F1028440000417F40007C04F2
:1002D0007804787C0804047838444444387C141446
:1002E0001408081414147C007C0804044854545462
:1002F0002004043F44443C4040207C1C2040201CFF
:100300003C4030403C44281028440C5050503C4461
:1003100064544C44000836414100007F00004141D4
:100320003608000201020402040000000000000080
:10033000000000000000000400000000FC04FC04B9
:100340000000000000000500001C001C0000001C54
:1003500000000000000600002001FC072001FC074F
:100360002001000006300078024802FC074802C85D
:10037000030000063C0024003C07F0008C078007C7
:100380000000060001FC0744044404C407400400C4
:1003900000040000000000001C000000000000003D
:1003A0000500000000FE3F012001200000000005C4
:1003B0000000000001200320FE1F000000000600D6
:1003C0000038005C003C00740018000000060000CB
:1003D00040004000F0014000400000000400000028
:1003E00000001C001C00000000000006000040008F
:1003F00040004000400040000000040000000000F9
:100400000400040000000000000600040006800153
:10041000600018000C00000006F001FC078407F4DF
:10042000041C04FC07000006000004040404FC078C
:10043000000400040000060007C407440444046CE0
:10044000047C040000060404040444044404FC0680
:10045000B8070000060001C00130010C01FC0700D4
:10046000010000063C043C04240424046406E40364
:10047000000006F001FC07440444044404C00700E3
:100480000006040004040407E4017C000C000000E2
:10049000060001FC0744044404CC06FC07000006E7
:1004A00038007C04440444044C06FC0700000400AB
:1004B00000000040044004000000000000040000B0
:1004C0000000401C401C000000000000050000402F
:1004D000006000B000180300000000060000A0004B
:1004E000A000A000A000A0000000050000080390EC
:1004F00001A0004000000000000600000400C40548
:1005000044046C007800000006E00FF01F901350C8
:1005100012D013F0130000060004C007FC010C0108
:10052000FC038007000006FC07FC0744044404FCAD
:1005300006B8070000060000FC070C0604040404CB
:1005400004040000060000FC07040404040C06FC7C
:10055000070000060000FC074404440444040404AB
:100560000000060000FC07440044004400040000B2
:1005700000060000FC07040444044404C40700000F
:1005800006FC07FC07400040004000FC0700000696
:10059000000004040404FC07040404040000060032
:1005A00000000404040404FC07FC03000006FC072C
:1005B000FC076000F0011C0704060000060000FCB8
:1005C000070004000400040004000006FC07FC0708
:1005D000F0030007FC00FC07000006FC07FC07789E
:1005E00000E0010007FC07000006F001FC0704041E
:1005F00004040C06FC07000006FC07FC074400444A
:10060000006C007C00000006F001FC070404040CF0
:100610000C0EFC070000060000FC0744004400EC40
:1006200000BC0700000610007C0444044404C40617
:10063000C407000006000004000400FC07040004D6
:1006400000000006FC01FC07000400040006FC0793
:1006500000000604007C00E0070006F0033C0000F8
:1006600000073C00FC078007F0010006FC070400BF
:100670000604040C07F803E000B8070C06000006A7
:1006800004001C00F807C0077C000C0000000600F6
:100690000004078407E4043C040C04000005000087
:1006A0000000FF3F01200120000000000604000CB4
:1006B000003000C00000030006000005000000003C
:1006C00001200120FF3F000000000720001000086B
:1006D000000C001000200020000700200020002057
:1006E0000020002000200020050000040008000871
:1006F000000800000000000600039007900490042A
:100700009004F007000006FC07FC071004100430FA
:1007100006F0070000060000F007100410041004A3
:1007200010040000060000F00710041004FC07FC91
:1007300007000006C001F007900490049004F00444
:1007400000000600001000F807FC07140004000079
:100750000006C001F007102410241034F03F000000
:1007600006FC07FC07100010003000F00700000630
:10077000000010041404F407000400040000060044
:1007800000102010201020F43F0400000006FC0799
:10079000FC0780016003300610040000060000041E
:1007A00004FC07FC0700040004000006F007F00743
:1007B0001000F0071000F007000006F007F0071027
:1007C0000010003000F007000006E003F0071004FE
:1007D00010041004F007000006F03FF03F10041072
:1007E000041004F0070000060000F00710041004D5
:1007F0001004F03F0000060000F007100010001089
:100800000010000000066000F004900490049004C2
:10081000900700000600001000FC07FC0710041001
:1008200000000006F001F007000400040004F007D7
:100830000000071000F000C0070006E0077000107D
:1008400000077000F0078007C0010006F0071000E5
:100850000610043006E003C0016007100600000720
:100860001000F000E037001EC0037000100006000A
:100870000010069007D00570043004000006000048
:100880008000FC1F3F3F0120012000000400000009
:10089000000000FF3F0000000000000600000120F3
:1008A0000320FE1FC0008000000006000060002042
:1008B00000600040002000000004F807F807F80777
:1008C000F8070000000000000F000000000000001A
:1008D0000000000000000000000000000000000018
:1008E0000000000000000000000000000000000008
:1008F00000000000000000000000000000000000F8
:1009000000000000000000000000000000000000E7
:1009100000000000000000000000000000000000D7
:1009200000000000000000000000000000000000C7
:1009300000000000000000000000000000000000B7
:1009400000000000000000000000000000000000A7
:100950000000000000000000000000000000000097
:100960000000000000000000000000000000000087
:100970000000000000000000000000000000000077
:100980000000000000000000000000000000000067
:100990000000000000000000000000000000000057
:1009A0000000000000000000000000000000000047
:1009B0000013000000000000000000000000000024
:1009C0000000000000000000000000000000000027
:1009D0000000000000000000000000000000000017
:1009E0000000000000000000000000000000000007
:1009F00000000000000000000000000000000000F7
:100A0000000080FFFFFF0F3F000080FFFFFF0F3F50
:100A1000000080FFFFFF0F3F000080FFFFFF0F3F40
:100A2000000080FFFFFF0F3F000080FFFFFF0F3F30
:100A3000000080FFFFFF0F3F000080FFFFFF0F3F20
:100A4000000080FFFFFF0F3F0000000000000000DB
:100A50000000000000000000000000000000000096
:100A60000000000000000000000000000000000086
:100A70000000000000000000000000000000000076
:100A80000000000000000000000000000000000066
:100A9000000000000000000000001700000000003F
:100AA0000000000000000000000000000000000046
:100AB0000000000000000000000000000000000036
:100AC0000000000000000000000000E0FF07000040
:100AD000000000E0FF070000000000E0FF0700004A
:100AE000000000E0FF070000000000E0FF0700003A
:100AF000000000E0FF070000000000E0FF0700002A
:100B000000000000000000000000000000000000E5
:100B100000000000000000000000000000000000D5
:100B2000000000E0FF070000000000E0FF070000F9
:100B3000000000E0FF070000000000E0FF070000E9
:100B4000000000E0FF070000000000E0FF070000D9
:100B50000000000000000000000000000000000095
:100B60000000000000000000000000000000000085
:100B70000000000000000000000000000000000075
:100B80000000001A0000000000000000000000004B
:100B900000000000000000000000000000007800DD
:100BA0000F000000000078000F0000000000780037
:100BB0000F000000000078000F0000000000780027
:100BC0000F00000080FFFFFFFF3F000080FFFFFFDE
:100BD000FF3F000080FFFFFFFF3F000080FFFFFF9F
:100BE000FF3F0000000078000F00000000007800C8
:100BF0000F000000000078000F00000000007800E7
:100C00000F000000000078000F00000000007800D6
:100C10000F00000080FFFFFFFF3F000080FFFFFF8D
:100C2000FF3F000080FFFFFFFF3F000080FFFFFF4E
:100C3000FF3F0000000078000F0000000000780077
:100C40000F000000000078000F0000000000780096
:100C50000F00000000000000000000000000000085
:100C60000000000000000000000000001C00000068
:100C7000000000000000003C00000000000080FFB9
:100C8000010007000000C0FF070007000000E0FFB0
:100C90000F0007000000F0FF1F0007000000F0FF3A
:100CA0001F0007000000F0FF1F0007000000F08099
:100CB0001F000700000070001F0007000000700008
:100CC0001F000700000070001F00070000007000F8
:100CD0001F0007000080FFFFFFFF3F000080FFFFB5
:100CE000FFFF3F000080FFFFFFFF3F00000070009C
:100CF0001F000700000070001F00070000007000C8
:100D00001F000700000070001F00070000007000B7
:100D10003F80070000007000FFC007000000700067
:100D2000FFFF070000007000FFFF070000007000D9
:100D3000FEFF070000007000FEFF0300000000003F
:100D4000F8FF010000000000E03F0000000000008C
:100D500000000000001C000000000000000000FC7B
:100D60001F000000000000FF7F000000000080FF67
:100D7000FF000000000080FFFF000000000080076F
:100D8000F000000000008003E0000000000080038D
:100D9000E000002000008003E000003C000080FF35
:100DA000FF00C03F000080FFFF00F83F000080FF11
:100DB000FF80FF0F000000FE3FF0FF010000000079
:100DC00000FE3F0000000000E0FF03000000000004
:100DD000FC7F0000000000C0FF87FF0F000000F84C
:100DE000FFC0FF1F000000FF0FE0FF3F000080FF7B
:100DF00001E0FF3F0000803F00E00038000080037A
:100E000000E000380000000000E0003800000000B2
:100E100000E000380000000000E0FF3F000000009C
:100E200000E0FF3F0000000000C0FF1F00000000C6
:100E30000080FF0F000000000000000000001B0009
:100E400000000000000000000000000000000000A2
:100E50000001803F00000000F81FF0FF01000000CB
:100E6000FC7FFCFF07000000FEFFFEFF0F000000FC
:100E7000FFFFFFFF1F000080FFFFFFFF3F0000801C
:100E8000FFFFFFFF3F000080FFFCFFF03F000080FE
:100E90001FE00F003F0000800FC007003E000080F1
:100EA0000FC007003E0000800FC007003E0000801A
:100EB0000FC007003E0000800FC007003E0000800A
:100EC0000FC007003E0000800FC0FFFF3F00008002
:100ED0000FC0FFFF3F0000800FC0FFFF3F000080FA
:100EE0000FC0FFFF3F00000000C0FFFF3F000000F9
:100EF00000C007003E00000000C007003E000000E8
:100F000000C007003E00000000C007003E000000D7
:100F100000C007003E0000000000000000000000CC
:100F200000000000000000120000000000000000AF
:100F300000000000000000000000000000000000B1
:100F400000000000000000000000000000000000A1
:100F50000000000000000000000000000000000091
:100F60000000000000000000000000000000000081
:100F70000000000000000000000000000000000071
:100F80000000000000000000E0FF0700000000007B
:100F9000E0FF070000000000E0FF07000000000085
:100FA000E0FF070000000000E0FF07000000000075
:100FB000E0FF07000000000000000000000000004B
:100FC0000000000000000000000000000000000021
:100FD0000000000000000000000000000000000011
:100FE0000000000000000000000000000000000001
:100FF00000000000000000000000000000000000F1
:1010000000000000000000000000000000000000E0
:1010100017000000000000000000000000000000B9
:1010200000000000000000000000000000000000C0
:1010300000000000000000000000000000000000B0
:1010400000000000000000000080FFFFFFFFFF0F16
:1010500000E0FFFFFFFFFF3F00F0FFFFFFFFFF7F0C
:1010600000F8FFFFFFFFFFFF00FCFFFFFFFFFFFF98
:1010700000FEFFFFFFFFFFFF01FE0100000000FC7C
:10108000017E0000000000F0013F0000000000E0D1
:10109000031F0000000000E0031F0000000000E04C
:1010A000031F0000000000E0031F0000000000E03C
:1010B000031F0000000000E0031F0000000000E02C
:1010C000031F0000000000E003000000000000001B
:1010D0000000000000000000000000000000000010
:1010E0000000000000000000000000000000000000
:1010F00000000000000000000017000000000000D9
:1011000000000000000000000000000000000000DF
:1011100000000000000000000000000000000000CF
:1011200000000000000000000000000000000000BF
:1011300000001F0000000000E0031F00000000008E
:10114000E0031F0000000000E0031F00000000009B
:10115000E0031F0000000000E0031F00000000008B
:10116000E0031F0000000000E0033F00000000005B
:10117000F003FE0000000000F801FEFFFFFFFFFF8C
:10118000FF01FCFFFFFFFFFFFF00FCFFFFFFFFFF72
:10119000FF00F8FFFFFFFFFF7F00F0FFFFFFFFFFF3
:1011A0003F00C0FFFFFFFFFF1F0000FEFFFFFFFF2C
:1011B000030000000000000000000000000000002C
:1011C000000000000000000000000000000000001F
:1011D000000000000000000000000000000000000F
:1011E00000001900000000000000000000000000E6
:1011F00000000000000000000000000000000000EF
:10120000000000000006000000000000007E00005A
:1012100000000000183E0000000000003C3E0000FE
:10122000000000007E3E000000000000FF1F0400E0
:1012300000000000FC9F070000000000F8FF07000E
:1012400000000000F0FF070000000000E0FF0F00BA
:1012500000000000FFFF0F0000000080FFFF000003
:1012600000000080FF7F000000000000FFFF000082
:1012700000000000CFFF010000000000C3FF0700D6
:1012800000000000E0F3030000000000E0E30100C4
:1012900000000000E0C3000000000000F043000078
:1012A00000000000800300000000000000000000BB
:1012B000000000000000000000000000000000002E
:1012C0000000000000000000000000190000000005
:1012D000000000000000000000000000000000000E
:1012E0000000000000000000000000000000800F6F
:1012F000000000000000800F000000000000800FD0
:10130000000000000000800F000000000000800FBF
:10131000000000000000800F000000000000800FAF
:10132000000000000000800F000000000080FFFFB0
:101330000F0000000080FFFF0F0000000080FFFF93
:101340000F0000000080FFFF0F0000000080FFFF83
:101350000F0000000000800F000000000000800F60
:10136000000000000000800F000000000000800F5F
:10137000000000000000800F000000000000800F4F
:10138000000000000000800F000000000000800F3F
:10139000000000000000000000000000000000004D
:1013A000000000000000000000000000000000003D
:1013B000000000001300000000000000000000001A
:1013C000000000000000000000000000000000001D
:1013D000000000000000000000000000000000000D
:1013E00000000000000000000000000000000000FD
:1013F00000000000000000000000000000000000ED
:1014000000000000000000000000FF7F000000005E
:101410000000FF7F000000000000FF7F00000000D0
:101420000000FF7F000000000000FF7F00000000C0
:101430000000FF7F000000000000FF7F00000000B0
:101440000000FF070000000000000F000000000087
:10145000000000000000000000000000000000008C
:10146000000000000000000000000000000000007C
:10147000000000000000000000000000000000006C
:10148000000000000000000000000000000000005C
:10149000000000000000000000000000001B000031
:1014A000000000000000000000000000000000003C
:1014B0000000000000000000003E000000000000EE
:1014C000003E000000000000003E000000000000A0
:1014D000003E000000000000003E00000000000090
:1014E000003E000000000000003E00000000000080
:1014F000003E000000000000003E00000000000070
:10150000003E000000000000003E0000000000005F
:10151000003E000000000000003E0000000000004F
:10152000003E000000000000003E0000000000003F
:10153000003E000000000000003E0000000000002F
:10154000003E000000000000003E0000000000001F
:10155000003E000000000000003E0000000000000F
:10156000003E000000000000003E000000000000FF
:10157000003E00000000000000000000000000002D
:101580000000000000001300000000000000000048
:10159000000000000000000000000000000000004B
:1015A000000000000000000000000000000000003B
:1015B000000000000000000000000000000000002B
:1015C000000000000000000000000000000000001B
:1015D0000000000000000000000000003F000000CC
:1015E000000000003F000000000000003F0000007D
:1015F000000000003F000000000000003F0000006D
:10160000000000003F000000000000003F0000005C
:10161000000000003F000000000000003F0000004C
:1016200000000000000000000000000000000000BA
:1016300000000000000000000000000000000000AA
:10164000000000000000000000000000000000009A
:10165000000000000000000000000000000000008A
:101660000000000000000000000000000000001B5F
:10167000000000000000000000000000000000006A
:101680000000000000200000000000000038000002
:1016900000000000003E000000000000803F00004D
:1016A00000000000E03F000000000000F81F000004
:1016B00000000000FE07000000000000FF01000025
:1016C000000000C07F000000000000F01F000000CC
:1016D000000000FC07000000000000FF0300000005
:1016E0000000C0FF000000000000F03F000000000C
:1016F0000000FC0F000000000000FF0300000000DD
:1017000000C0FF000000000000E03F0000000000FB
:1017100000F80F000000000000FE030000000000C1
:1017200080FF000000000000807F0000000000003B
:10173000801F000000000000800700000000000083
:101740008001000000000000000000000000000018
:1017500000000000000000001B000000000000006E
:1017600000000000000000000000C0FFFF7F00003C
:101770000000F8FFFFFF03000000FEFFFFFF0F0067
:101780000000FFFFFFFF1F000000FFFFFFFF1F0023
:101790000080FFFFFFFF3F000080FFFFFFFF3F00D3
:1017A00000803F0000FC3F0000800F0080FF3F00F2
:1017B00000800F00F0FF3F0000800F00FCFF3E00A4
:1017C00000800F80FF1F3E0000800FF0FF073E00EB
:1017D00000800FFEFF003E000080CFFF1F003E0094
:1017E0000080FFFF03003E000080FF7F00003E00FE
:1017F0000080FF1F00003F000080FF0300C03F008B
:101800000080FFFFFFFF3F000000FFFFFFFF1F0002
:101810000000FFFFFFFF1F000000FEFFFFFF0F00A3
:101820000000F8FFFFFF07000000E0FFFFFF0000DF
:1018300000000000000000000000000000000000A8
:10184000001B00000000000000000000000000007D
:10185000000000000000003E000000000000003E0C
:10186000000000000000003E000000000000003EFC
:101870000000800F0000003E0000800F0000003ECE
:101880000000800F0000003E0000800F0000003EBE
:101890000000800F0000003E000080FFFFFFFF3FC0
:1018A000000080FFFFFFFF3F000080FFFFFFFF3FC2
:1018B000000080FFFFFFFF3F000080FFFFFFFF3FB2
:1018C000000080FFFFFFFF3F000080FFFFFFFF3FA2
:1018D000000080FFFFFFFF3F000000000000003E0F
:1018E000000000000000003E000000000000003E7C
:1018F000000000000000003E000000000000003E6C
:10190000000000000000003E000000000000003E5B
:10191000000000000000003E000000000000000089
:10192000000000000000000000001B00000000009C
:10193000000000000000000000000000000080FF28
:101940003F0000000000F0FF3F0000000000FCFF2F
:101950003F0000000000FEFF3F0000800F00FEFF80
:101960003F0000800F00FFFF3F0000800F00FFFFDF
:101970003F0000800F00FF013E0000800F003F008D
:101980003E0000800F001F003E0000800F001F007F
:101990003E0000800F001F003E0000800F001F006F
:1019A0003E0000800F001F003E0000800F001F005F
:1019B0003E0000800F001F003E0000801F801F00BF
:1019C0003E0000807FE01F003E000080FFFF1F0000
:1019D0003E000080FFFF1F003E000000FFFF0F00E1
:1019E0003E000000FFFF0F003E000000FEFF07006A
:1019F0003E000000F8FF01003E000000E07F000014
:101A00003E00000000000000000000000000000098
:101A10000000001B000000000000000000000000AB
:101A200000000000800F0000003E0000800F00005A
:101A3000003E0000800F0000003E0000800F00000C
:101A4000003E0000800F0000003E0000800F0000FC
:101A5000003E0000800F0000003E0000800F0000EC
:101A6000003E0000800F001F003E0000800F001F9E
:101A7000003E0000800F001F003E0000800F001F8E
:101A8000003E0000800F001F003E0000800F001F7E
:101A9000003E0000800F001F003E0000800F001F6E
:101AA000003E0000801FC03F003F000080FFFFFF9E
:101AB000C03F000080FFFFFFFF3F000000FFFFFF6F
:101AC000FF3F000000FFFFFFFF1F000000FEFFFFC1
:101AD000FF1F000000FCFFF9FF0F000000F07FE097
:101AE000FF03000000000680FF000000000000006F
:101AF0000000000000000000000000001B000000CB
:101B000000000000000000000000000000000000D5
:101B1000007F000000000000C07F00000000000007
:101B2000F07F000000000000FC7F000000000000CB
:101B3000FF7F0000000000C0FF7F0000000000F8F1
:101B4000FF7C0000000000FE1F7C0000000080FF02
:101B5000077C00000000E0FF017C00000000F87F2F
:101B6000007C00000000FE1F007C00000080FF07DA
:101B7000007C00000080FF01007C000000803F002E
:101B8000007C00000080FFFFFFFF3F000080FFFFA0
:101B9000FFFF3F000080FFFFFFFF3F000080FFFFCF
:101BA000FFFF3F000080FFFFFFFF3F000080FFFFBF
:101BB000FFFF3F0000000000007C0000000000006C
:101BC000007C000000000000007C0000000000001D
:101BD000007C000000000000000000000000000089
:101BE00000000000001B00000000000000000000DA
:101BF00000000000000080FFFF07003E000080FFA3
:101C0000FF07003E000080FFFF07003E000080FF4E
:101C1000FF07003E000080FFFF07003E000080FF3E
:101C2000FF07003E000080FFFF07003E0000800F1E
:101C3000C007003E0000800FC007003E0000800F7C
:101C4000C007003E0000800FC007003E0000800F6C
:101C5000C007003E0000800FC007003E0000800F5C
:101C6000C007003E0000800FC007003E0000800F4C
:101C7000C007003E0000800FC007003F0000800F3B
:101C8000C01FC03F0000800FC0FFFF3F0000800F5B
:101C9000C0FFFF3F0000800F80FFFF1F0000800F8C
:101CA00080FFFF0F0000000000FFFF0700000000A2
:101CB00000FCFF010000000000F07F0000000000B9
:101CC00000000000000000000000000000001B00F9
:101CD0000000000000000000000000000000000004
:101CE000F0FFFFFF01000000FCFFFFFF0700000006
:101CF000FFFFFFFF1F000000FFFFFFFF1F0000802E
:101D0000FFFFFFFF3F000080FFFFFFFF3F0000805D
:101D1000FFFFFFFF3F0000807FC007C03F00008043
:101D20000FC007003E0000800FC007003E0000808B
:101D30000FC007003E0000800FC007003E0000807B
:101D40000FC007003E0000800FC007003E0000806B
:101D50000FC007003E0000800FC007003E0000805B
:101D60000FC007003E0000800FC007003F0000804A
:101D70000FC0FFFF3F0000800FC0FFFF3F0000804B
:101D80000FC0FFFF3F00000000C0FFFF1F0000006A
:101D90000080FFFF1F0000000000FFFF0F00000099
:101DA0000000FCFF03000000000000000000000035
:101DB000000000000000001C000000000000000007
:101DC0000000000000000000800F00000000000084
:101DD000800F000000000000800F000000000000E5
:101DE000800F000000200000800F0000003C000079
:101DF000800F0000003F0000800F0000E03F000067
:101E0000800F0000F83F0000800F0000FF3F00003F
:101E1000800F00C0FF3F0000800F00F0FF1F000098
:101E2000800F00FEFF070000800F80FFFF00000012
:101E3000800FF0FF3F000000800FFCFF0700000054
:101E4000808FFFFF0100000080EFFF3F00000000D7
:101E500080FFFF0F0000000080FFFF010000000076
:101E600080FF7F000000000080FF0F0000000000E6
:101E700080FF030000000000807F000000000000E1
:101E8000801F000000000000800300000000000030
:101E900080000000000000000000000000000000C2
:101EA0001B00000000000000000000000000000017
:101EB00000000000E0FF00000000F83FF8FF030012
:101EC0000000FCFFFCFF0F000000FEFFFFFF1F00F3
:101ED0000000FFFFFFFF1F000080FFFFFFFF3F002C
:101EE0000080FFFFFFFF3F0000803FE03FC03F005A
:101EF00000801FC01F003F0000800F800F003E00C9
:101F000000800F800F003E0000800F800F003E0019
:101F100000800F800F003E0000800F800F003E0009
:101F200000800F800F003E0000800F800F003E00F9
:101F300000800F800F003E0000803FE03F803F00A8
:101F40000080FFFFFFFF3F000080FFFFFFFF3F001B
:101F50000000FFFFFFFF1F000000FFFFFFFF1F004B
:101F60000000FEFFFEFF0F000000F87FFCFF0700EF
:101F70000000C00FF0FF01000000000000000000A2
:101F80000000000000000000001B00000000000036
:101F90000000000000000000000000F0FF0300004F
:101FA000000000FEFF0F0000000000FFFF3F003EAA
:101FB000000000FFFF3F003E000080FFFF7F003E6B
:101FC000000080FFFF7F003E000080FFFF7F003E9B
:101FD000000080FF807F003E0000800F007C003EFC
:101FE0000000800F007C003E0000800F007C003E5F
:101FF0000000800F007C003E0000800F007C003E4F
:102000000000800F007C003E0000800F007C003E3E
:102010000000800F007C003E0000800F007C003E2E
:102020000000803F007C803F000080FFFFFFFF3FFB
:10203000000080FFFFFFFF3F000080FFFFFFFF3F2A
:10204000000000FFFFFFFF1F000000FFFFFFFF1F5A
:10205000000000FEFFFFFF0F000000F8FFFFFF037E
:102060000000000000000000000000000000000070
:10207000000013000000000000000000000000004D
:102080000000000000000000000000000000000050
:102090000000000000000000000000000000000040
:1020A0000000000000000000000000000000000030
:1020B0000000000000000000000000000000000020
:1020C0000000000000801F003F00000000801F0093
:1020D0003F00000000801F003F00000000801F0044
:1020E0003F00000000801F003F00000000801F0034
:1020F0003F00000000801F003F00000000801F0024
:102100003F00000000801F003F00000000000000B2
:1021100000000000000000000000000000000000BF
:1021200000000000000000000000000000000000AF
:10213000000000000000000000000000000000009F
:10214000000000000000000000000000000000008F
:10215000000000000000000000000013000000006C
:10216000000000000000000000000000000000006F
:10217000000000000000000000000000000000005F
:10218000000000000000000000000000000000004F
:10219000000000000000000000000000000000003F
:1021A0000000000000000000000000000000801F90
:1021B00000FF7F000000801F00FF7F000000801FE5
:1021C00000FF7F000000801F00FF7F000000801FD5
:1021D00000FF7F000000801F00FF7F000000801FC5
:1021E00000FF7F000000801F00FF07000000801F2D
:1021F000000F0000000000000000000000000000D0
:1022000000000000000000000000000000000000CE
:1022100000000000000000000000000000000000BE
:1022200000000000000000000000000000000000AE
:10223000000000000000000000000000000000009E
:102240000000000017000000000000000000000077
:10225000000000000000000000000000000000007E
:10226000000000000000000000000000000000006E
:10227000000000000000000002000000000000005C
:1022800007000000000000800F000000000000C0F8
:102290001F000000000000C03F000000000000E040
:1022A0007F000000000000F0FF000000000000F8C8
:1022B000FD000000000000FCF80100000000007EAE
:1022C000F00300000000003FE00700000000801F56
:1022D000E00F00000000C01FC01F00000000E00F62
:1022E000803F00000000F007007F00000000F003C6
:1022F000007E00000000FC0100FC01000000000066
:1023000000000000000000000000000000000000CD
:1023100000000000000000000000000000000000BD
:102320000000000000000000000000000019000094
:10233000000000000000000000000000000000009D
:10234000000000000000000000000000000000008D
:1023500000000000000000007CF001000000000010
:102360007CF00100000000007CF001000000000093
:102370007CF00100000000007CF001000000000083
:102380007CF00100000000007CF001000000000073
:102390007CF00100000000007CF001000000000063
:1023A0007CF00100000000007CF001000000000053
:1023B0007CF00100000000007CF001000000000043
:1023C0007CF00100000000007CF001000000000033
:1023D0007CF00100000000007CF001000000000023
:1023E0007CF00100000000007CF001000000000013
:1023F0007CF0010000000000000000000000000070
:1024000000000000000000000000000000000000CC
:1024100000000000000017000000000000000000A5
:1024200000000000000000000000000000000000AC
:10243000000000000000000000000000000000009C
:102440000000000000000000FC0100FC0100000092
:10245000F80300FE00000000F007007F000000000D
:10246000E007003F00000000C00F801F00000000D8
:10247000801FC00F00000000003FE00700000000C8
:10248000007EF0070000000000FCF80300000000E0
:1024900000F8FD010000000000F8FF00000000004F
:1024A00000F07F000000000000E03F00000000009E
:1024B00000C01F000000000000800F0000000000AE
:1024C00000000F00000000000000060000000000F7
:1024D00000000000000000000000000000000000FC
:1024E00000000000000000000000000000000000EC
:1024F0000000000000000000000000000000001BC1
:1025000000000000000000000000000000000000CB
:102510000000000000000000800F0000000000002C
:10252000800F000000000000800F0000000000008D
:10253000800F000000000000800F0000003F00003E
:10254000800F00F00F3F0000800F00F81F3F0000D9
:10255000800F00FC1F3F0000800F00FE1F3F0000A7
:10256000800F00FF033F0000800F007F003F00004E
:10257000800F001F003F0000800F001F003F000081
:10258000800F001F00000000800F001F00000000EF
:10259000801F801F0000000080FFF01F000000006F
:1025A00080FFFF1F0000000080FFFF0F0000000001
:1025B00000FFFF0F0000000000FEFF07000000000A
:1025C00000FCFF030000000000F0FF00000000001E
:1025D00000801F000000000000000000000000005C
:1025E00000000000000000001B00000000000000D0
:1025F0000000000000000000000000FCFFFFFF07DB
:10260000000000FEFFFFFF1F000000FFFFFFFF1F95
:10261000000080FFFFFFFF3F000080FFFFFFFF3F44
:102620000000800F0000003E0000800F0000003E10
:102630000000800F0000003E0000800FE0FF003E21
:102640000000800FF8FF033E0000800FFCFF073EF4
:102650000000800F7CE0073E0000800F3C80073EBA
:102660000000800F3C80073E0000800FFCFF073E0B
:102670000000800FFCFF073E0000800FFCFF073EBC
:102680000000800FFCFF073E0000800F0080073E27
:102690000000800F0080073E0000801F0080073E82
:1026A000000080FFFFFF073E000080FFFFFF073EA6
:1026B000000000FFFFFF073E000000FEFFFF073E97
:1026C000000000000000000000000000000000000A
:1026D000001C0000000000000000000000000000DE
:1026E000000000000000003C000000000000E03F8F
:1026F000000000000000FE3F0000000000F0FF3F6F
:102700000000000080FFFF3F00000000FCFFFF3FD3
:10271000000000E0FFFFFF3F000000FFFFFFFF0F92
:10272000000080FFFFFF3F00000080FFFF3F3E00F2
:10273000000080FFFF003E00000080FF01003E001F
:102740000000800F00003E000000807F00003E007F
:10275000000080FF3F003E00000080FFFF0F3E00B2
:10276000000080FFFFFF3F00000080FFFFFFFF032E
:10277000000000F0FFFFFF3F00000000FEFFFF3FF2
:1027800000000000E0FFFF3F0000000000FCFF3FF2
:10279000000000000080FF3F000000000000F03F4C
:1027A000000000000000003E0000000000000020CB
:1027B000000000000000000000001B0000000000FE
:1027C000000000000000000000000080FFFFFFFF8D
:1027D0003F000080FFFFFFFF3F000080FFFFFFFF83
:1027E0003F000080FFFFFFFF3F000080FFFFFFFF73
:1027F0003F000080FFFFFFFF3F000080FFFFFFFF63
:102800003F0000800F001F003E0000800F001F00EF
:102810003E0000800F001F003E0000800F001F00E0
:102820003E0000800F001F003E0000800F001F00D0
:102830003E0000800F001F003E0000800F001F00C0
:102840003E0000800F001F003E0000801F803F0000
:102850003F000080FFF97F803F000080FFFFFFFF07
:102860003F000080FFFFFFFF3F000000FFFFFFFF72
:102870001F000000FEFFFFFF1F000000FCFFF9FF2C
:102880000F000000F0FFF0FF07000000800FC0FF06
:102890000100000000000000000000000000000037
:1028A0000000001A0000000000000000000000000E
:1028B00000000000000000000000000000C0FFFF5A
:1028C0007F00000000F8FFFFFF03000000FCFFFF97
:1028D000FF07000000FEFFFFFF0F000000FFFFFFEB
:1028E000FF1F000080FFFFFFFF3F000080FFFFFF92
:1028F000FF3F000080FF0000E03F0000801F00005D
:10290000003F0000800F0000003E0000800F00002C
:10291000003E0000800F0000003E0000800F00001D
:10292000003E0000800F0000003E0000800F00000D
:10293000003E0000800F0000003E0000800F0000FD
:10294000003E0000800F0000003E0000800F0000ED
:10295000003E0000800F0000003E0000800F0000DD
:10296000003E0000800F0000003E0000800F0000CD
:10297000003E000000000000000000000000000019
:102980000000000000000000000000001B0000002C
:102990000000000000000000000000000080FFFFB9
:1029A000FFFF3F000080FFFFFFFF3F000080FFFFB1
:1029B000FFFF3F000080FFFFFFFF3F000080FFFFA1
:1029C000FFFF3F000080FFFFFFFF3F000080FFFF91
:1029D000FFFF3F000080FFFFFFFF3F0000800F0070
:1029E00000003E0000800F0000003E0000800F004D
:1029F00000003E0000800F0000003E0000800F003D
:102A000000003E0000800F0000003E0000800F002C
:102A100000003E0000800F0000003E0000801F000C
:102A200000003F0000807F0000C03F000080FFFFEB
:102A3000FFFF3F000080FFFFFFFF3F000000FFFFA0
:102A4000FFFF1F000000FFFFFFFF1F000000FEFF51
:102A5000FFFF0F000000F8FFFFFF03000000E0FF92
:102A6000FFFF000000000000000000000000000068
:102A700000000000001B000000000000000000003B
:102A8000000000000000000000000000000080FFC7
:102A9000FFFFFF3F000080FFFFFFFF3F000080FFC0
:102AA000FFFFFF3F000080FFFFFFFF3F000080FFB0
:102AB000FFFFFF3F000080FFFFFFFF3F000080FFA0
:102AC000FFFFFF3F0000800F001F003E0000800F4F
:102AD000001F003E0000800F001F003E0000800F1E
:102AE000001F003E0000800F001F003E0000800F0E
:102AF000001F003E0000800F001F003E0000800FFE
:102B0000001F003E0000800F001F003E0000800FED
:102B1000001F003E0000800F001F003E0000800FDD
:102B2000001F003E0000800F0000003E0000800FEC
:102B30000000003E0000800F0000003E0000800FFB
:102B40000000003E0000800F0000003E000000007A
:102B500000000000000000000000000000001B005A
:102B600000000000000000000000000000000080E5
:102B7000FFFFFFFF3F000080FFFFFFFF3F000080DF
:102B8000FFFFFFFF3F000080FFFFFFFF3F000080CF
:102B9000FFFFFFFF3F000080FFFFFFFF3F000080BF
:102BA000FFFFFFFF3F000080FFFFFFFF3F000080AF
:102BB0000F001F00000000800F001F0000000080B9
:102BC0000F001F00000000800F001F0000000080A9
:102BD0000F001F00000000800F001F000000008099
:102BE0000F001F00000000800F001F000000008089
:102BF0000F001F00000000800F001F000000008079
:102C00000F001F00000000800F001F000000008068
:102C10000F000000000000800F0000000000008096
:102C20000F000000000000800F0000000000008086
:102C30000F00000000000000000000000000000085
:102C4000000000000000001B000000000000000069
:102C50000000000000000000000000000000000074
:102C600000F0FFFFFF01000000FCFFFFFF07000076
:102C700000FEFFFFFF0F000000FFFFFFFF1F00002F
:102C800000FFFFFFFF1F000080FFFFFFFF3F00006E
:102C900080FFFFFFFF3F0000803F0000803F0000FB
:102CA000800F0000003E0000800F0000003E00008A
:102CB000800F001F003E0000800F001F003E00003C
:102CC000800F001F003E0000800F001F003E00002C
:102CD000800F001F003E0000800F001F003E00001C
:102CE000800F001F003E0000800F00FFFF3F00002C
:102CF000800F00FFFF3F0000800F00FFFF3F00003C
:102D0000800F00FFFF3F0000800F00FFFF3F00002B
:102D1000800F00FFFF3F0000000000FFFF3F0000AA
:102D200000000000000000000000000000000000A3
:102D30001B00000000000000000000000000000078
:102D40000080FFFFFFFF3F000080FFFFFFFF3F000D
:102D50000080FFFFFFFF3F000080FFFFFFFF3F00FD
:102D60000080FFFFFFFF3F000080FFFFFFFF3F00ED
:102D70000080FFFFFFFF3F000080FFFFFFFF3F00DD
:102D8000000000001F000000000000001F00000005
:102D9000000000001F000000000000001F000000F5
:102DA000000000001F000000000000001F000000E5
:102DB000000000001F000000000000001F000000D5
:102DC000000000001F000000000000001F000000C5
:102DD0000080FFFFFFFF3F000080FFFFFFFF3F007D
:102DE0000080FFFFFFFF3F000080FFFFFFFF3F006D
:102DF0000080FFFFFFFF3F000080FFFFFFFF3F005D
:102E00000080FFFFFFFF3F00000000000000000007
:102E10000000000000000000001B00000000000097
:102E200000000000000000000000000000000000A2
:102E30000000800F0000003E0000800F0000003EF8
:102E40000000800F0000003E0000800F0000003EE8
:102E50000000800F0000003E0000800F0000003ED8
:102E60000000800F0000003E0000800F0000003EC8
:102E7000000080FFFFFFFF3F000080FFFFFFFF3FDC
:102E8000000080FFFFFFFF3F000080FFFFFFFF3FCC
:102E9000000080FFFFFFFF3F000080FFFFFFFF3FBC
:102EA000000080FFFFFFFF3F0000800F0000003E9A
:102EB0000000800F0000003E0000800F0000003E78
:102EC0000000800F0000003E0000800F0000003E68
:102ED0000000800F0000003E0000800F0000003E58
:102EE0000000800F0000003E0000800F0000003E48
:102EF00000000000000000000000000000000000D2
:102F000000001B00000000000000000000000000A6
:102F100000000000000000000000000000000000B1
:102F20003E000000000000003E0000000000000025
:102F30003E000000000000003E0000000000000015
:102F40003E000000000000003E0000000000000005
:102F50003E0000800F0000003E0000800F000000D7
:102F60003E0000800F0000003E0000800F000000C7
:102F70003E0000800F0000003E0000800F000000B7
:102F80003E0000800F0000003E0000800F000000A7
:102F90003E0000800F0000803F000080FFFFFFFF29
:102FA0003F000080FFFFFFFF3F000080FFFFFFFFAB
:102FB0001F000080FFFFFFFF1F000080FFFFFFFFDB
:102FC0000F000080FFFFFFFF07000080FFFFFFFFF3
:102FD00001000080FFFFFF0700000000000000006C
:102FE00000000000000000000000001C00000000C5
:102FF00000000000000000000000000080FFFFFF54
:10300000FF3F000080FFFFFFFF3F000080FFFFFF4A
:10301000FF3F000080FFFFFFFF3F000080FFFFFF3A
:10302000FF3F000080FFFFFFFF3F000080FFFFFF2A
:10303000FF3F00000000C00F000000000000E01F84
:10304000000000000000F87F000000000000FCFF0E
:10305000010000000000FFFF070000000080FFFFEC
:103060001F00000000E0FFFF7F00000000F0FFFEF7
:10307000FF01000000FC3FF8FF07000000FE1FE01A
:10308000FF1F000080FF0780FF3F000080FF03005C
:10309000FE3F000080FF0000F83F0000807F00003E
:1030A000E03F0000801F0000803F0000800F000014
:1030B000003F000080030000003C00008001000091
:1030C0000030000080000000000000000000000050
:1030D000000000001B0000000000000000000000D5
:1030E000000000000080FFFFFFFF3F000080FFFFA7
:1030F000FFFF3F000080FFFFFFFF3F000080FFFF5A
:10310000FFFF3F000080FFFFFFFF3F000080FFFF49
:10311000FFFF3F000080FFFFFFFF3F000080FFFF39
:10312000FFFF3F000000000000003E000000000024
:1031300000003E000000000000003E000000000013
:1031400000003E000000000000003E000000000003
:1031500000003E000000000000003E0000000000F3
:1031600000003E000000000000003E0000000000E3
:1031700000003E000000000000003E0000000000D3
:1031800000003E000000000000003E0000000000C3
:1031900000003E000000000000003E0000000000B3
:1031A00000003E000000000000003E0000000000A3
:1031B000000000000000000000000000001B0000F4
:1031C000000000000000000000000000000080FF80
:1031D000FFFFFF3F000080FFFFFFFF3F000080FF79
:1031E000FFFFFF3F000080FFFFFFFF3F000080FF69
:1031F000FFFFFF3F000080FFFFFFFF3F000080FF59
:10320000FF030000000080FFFFFF0100000000F04E
:10321000FFFF7F0000000000FCFFFF1F0000000018
:1032200000FFFF3F0000000000C0FF3F0000000063
:103230000000F03F000000000000FF3F0000000021
:1032400000FCFF3F00000000F0FFFF3F000000C057
:10325000FFFFFF00000000FFFFFF0300000080FFF2
:10326000FF0F0000000080FF3F000000000080FF13
:10327000FFFFFF3F000080FFFFFFFF3F000080FFD8
:10328000FFFFFF3F000080FFFFFFFF3F000080FFC8
:10329000FFFFFF3F000000000000000000000000F2
:1032A0000000000000001B00000000000000000003
:1032B0000000000000000080FFFFFFFF3F000080D3
:1032C000FFFFFFFF3F000080FFFFFFFF3F00008088
:1032D000FFFFFFFF3F000080FFFFFFFF3F00008078
:1032E000FFFFFFFF3F000080FF1F00000000008085
:1032F000FFFF000000000000FEFF030000000000D0
:10330000F0FF1F0000000000C0FF7F000000000071
:1033100000FEFF010000000000F8FF0F00000000A9
:1033200000C0FF3F000000000000FEFF01000000A1
:103330000000F8FF070000000000C0FF1F000000B1
:10334000000000FF3F000000000000F83F00008088
:10335000FFFFFFFF3F000080FFFFFFFF3F000080F7
:10336000FFFFFFFF3F000080FFFFFFFF3F000080E7
:10337000FFFFFFFF3F000080FFFFFFFF3F00000057
:103380000000000000000000000000000000001B22
:10339000000000000000000000000000000000002D
:1033A00000E0FFFFFF00000000F8FFFFFF03000048
:1033B00000FEFFFFFF0F000000FFFFFFFF1F0000E8
:1033C00000FFFFFFFF1F000080FFFFFFFF3F000027
:1033D00080FFFFFFFF3F0000807F0000C03F000034
:1033E000801F0000003F0000800F0000003E000032
:1033F000800F0000003E0000800F0000003E000033
:10340000800F0000003E0000800F0000003E000022
:10341000800F0000003E0000800F0000003E000012
:10342000800F0000003E0000803F0000803F000051
:1034300080FFFFFFFF3F000080FFFFFFFF3F000016
:1034400000FFFFFFFF1F000000FFFFFFFF1F000046
:1034500000FEFFFFFF0F000000FCFFFFFF07000062
:1034600000F0FFFFFF01000000000000000000006E
:1034700000000000000000001B0000000000000031
:1034800000000000000000000080FFFFFFFF3F0081
:103490000080FFFFFFFF3F000080FFFFFFFF3F00B6
:1034A0000080FFFFFFFF3F000080FFFFFFFF3F00A6
:1034B0000080FFFFFFFF3F000080FFFFFFFF3F0096
:1034C0000080FFFFFFFF3F0000800F007C00000036
:1034D00000800F007C00000000800F007C000000D6
:1034E00000800F007C00000000800F007C000000C6
:1034F00000800F007C00000000800F007C000000B6
:1035000000800F007C00000000801F007E00000093
:1035100000807F807F0000000080FFFF7F000000B0
:103520000080FFFF7F0000000000FFFF3F00000061
:103530000000FEFF3F0000000000FCFF0F00000045
:103540000000F0FF070000000000C0FF00000000C6
:10355000000000000000000000000000000000006B
:10356000001B000000000000000000000000000040
:10357000000000C0FFFFFF00000000F8FFFFFF0396
:10358000000000FEFFFFFF0F000000FFFFFFFF1F16
:10359000000000FFFFFFFF1F000080FFFFFFFF3F55
:1035A000000080FFFFFFFF3F0000807F0000C03F62
:1035B0000000801F0000003F0000800F0000003E60
:1035C0000000800F0000003E0000800F0000007E21
:1035D0000000800F000000FE0300800F000000FECE
:1035E0000700800F000000FE0700800F000000FEB3
:1035F0000700801F000000FF0700803F000080BF21
:10360000070080FFFFFFFF3F060080FFFFFFFF3F37
:10361000000000FFFFFFFF1F000000FFFFFFFF1F74
:10362000000000FEFFFFFF0F000000FCFFFFFF0790
:10363000000000F0FFFFFF0100000000000000009C
:10364000000000000000000000001B00000000005F
:10365000000000000000000000000080FFFFFFFFEE
:103660003F000080FFFFFFFF3F000080FFFFFFFFE4
:103670003F000080FFFFFFFF3F000080FFFFFFFFD4
:103680003F000080FFFFFFFF3F000080FFFFFFFFC4
:103690003F000080FFFFFFFF3F0000800F001F0082
:1036A000000000800F001F00000000800F001F00BE
:1036B000000000800F001F00000000800F001F00AE
:1036C000000000800F001F00000000800F001F009E
:1036D000000000800F001F00000000801F803F00DE
:1036E000000000803FC0FF0000000080FFFFFFFFE0
:1036F0003F000080FFFFFFFF3F000000FFFFFFFFD4
:103700003F000000FFFFF9FF3F000000FEFFF1FF58
:103710003F000000F87FE0FF3F000000C01FC0FF37
:103720003F0000000000000000000000000000005A
:103730000000001B0000000000000000000000006E
:103740000000000000803F000000000000F0FF01CA
:10375000003E000000FCFF03003E000000FEFF07EB
:10376000003E000000FFFF0F003E000080FFFF1F33
:10377000003E000080FFFF1F003E0000807FF81F1A
:10378000003E0000801FC01F003E0000800F801F11
:10379000003E0000800F801F003E0000800F801F51
:1037A000003E0000800F801F003E0000800F801F41
:1037B000003E0000800F801F003E0000800F801F31
:1037C000003E0000800F803F003F0000800F807FA0
:1037D000C03F0000800F80FFFF3F0000800F80FF90
:1037E000FF3F0000800F00FFFF1F0000800F00FF61
:1037F000FF0F0000800F00FEFF070000000000F830
:10380000FF030000000000E07F0000000000000057
:103810000000000000000000000000001B0000008D
:103820000000000000000000000000000000000098
:103830000000000000800F000000000000800F006A
:103840000000000000800F000000000000800F005A
:103850000000000000800F000000000000800F004A
:103860000000000000800F000000000000800F003A
:10387000000000000080FFFFFFFF3F000080FFFF0F
:10388000FFFF3F000080FFFFFFFF3F000080FFFFC2
:10389000FFFF3F000080FFFFFFFF3F000080FFFFB2
:1038A000FFFF3F000080FFFFFFFF3F000080FFFFA2
:1038B000FFFF3F0000800F000000000000800F00AD
:1038C0000000000000800F000000000000800F00DA
:1038D0000000000000800F000000000000800F00CA
:1038E0000000000000800F000000000000800F00BA
:1038F00000000000000000000000000000000000C8
:1039000000000000001B000000000000000000009C
:1039100000000000000080FFFFFF7F00000080FF2C
:10392000FFFFFF03000080FFFFFFFF0F000080FF8D
:10393000FFFFFF1F000080FFFFFFFF1F000080FF51
:10394000FFFFFF3F000080FFFFFFFF3F0000000080
:103950000000C03F000000000000003F0000000029
:103960000000003E000000000000003E00000000DB
:103970000000003E000000000000003E00000000CB
:103980000000003E000000000000003E00000000BB
:103990000000003E000000000000003F00000000AA
:1039A0000000803F000080FFFFFFFF3F000080FF1E
:1039B000FFFFFF3F000080FFFFFFFF1F000080FFB1
:1039C000FFFFFF1F000080FFFFFFFF0F000080FFD1
:1039D000FFFFFF07000080FFFFFFFF000000000067
:1039E00000000000000000000000000000001C00BB
:1039F0000000000000000000000000000000008047
:103A00000F00000000000080FF00000000000080A8
:103A1000FF1F000000000080FFFF03000000008087
:103A2000FFFF7F0000000080FFFFFF070000008015
:103A3000FFFFFFFF00000000FCFFFFFF1F00000072
:103A400000FFFFFF3F00000000C0FFFF3F0000003D
:103A50000000F0FF3F000000000000FC3F000000FD
:103A6000000000C03F000000000000F83F00000020
:103A70000000C0FF3F0000000000FEFF3F0000000C
:103A800000F0FFFF3F00000080FFFFFF0700000085
:103A9000FEFFFF7F00000080FFFFFF0300000080AB
:103AA000FFFF3F0000000080FFFF030000000080D8
:103AB000FF1F000000000080FF01000000000080E8
:103AC0001F00000000000080000000000000000057
:103AD000000000000000001D800000000000000049
:103AE00080FF03000000000080FFFF0F00000000C7
:103AF00080FFFFFF3F00000080FFFFFFFF3F00004F
:103B000080FFFFFFFF3F000080FFFFFFFF3F00003F
:103B100000FCFFFFFF3F0000000000FFFF3F000030
:103B200000000000E03F000000000000FF3F000038
:103B3000000000FFFF3F00000000FEFFFF0F00003D
:103B40000000FEFF1F0000000000FE3F000000001C
:103B50000000FEFF070000000000FEFFFF01000064
:103B60000000C0FFFF3F0000000000C0FF3F00005A
:103B700000000000C03F0000000000E0FF3F000028
:103B80000080FFFFFF3F000080FFFFFFFF3F0000BE
:103B900080FFFFFFFF3F000080FFFFFFFF3F0000AF
:103BA00080FFFFFFFF03000080FFFFFF0000000019
:103BB00080FF1F00000000008007000000000000E0
:103BC0001C000000000000000000000000002000B9
:103BD00000800000000030000080070000003E0070
:103BE00000801F0000803F0000807F0000E03F0059
:103BF0000080FF0100F83F000080FF0700FE3F004B
:103C00000080FF1F80FF3F000080FF7FE0FF1F005C
:103C10000000FEFFFBFF03000000F0FFFF7F00003D
:103C20000000C0FFFF1F0000000000FEFF030000B7
:103C3000000000F8FF000000000000F0FF0100009D
:103C4000000000FCFF0F0000000000FFFF7F0000ED
:103C50000000E0FFFFFF01000000F8FFF9FF0F0088
:103C60000000FF7FE0FF3F000080FF1F80FF3F005C
:103C70000080FF0700FC3F000080FF0100F03F00D4
:103C800000807F0000C03F0000800F0000003F0068
:103C900000800300000038000080000000002000C9
:103CA0000000000000000000001C000000000000F8
:103CB00000008000000000000000800700000000FD
:103CC0000000801F00000000000080FF00000000D6
:103CD000000080FF03000000000080FF1F000000C4
:103CE000000080FFFF000000000080FFFF030000D5
:103CF000000000FFFF1F0000000000F0FFFF0000B9
:103D000000000080FFFFFF3F00000000F8FFFF3FC2
:103D100000000000C0FFFF3F0000000000FCFF3F6C
:103D20000000000000FFFF3F00000000F0FFFF3F29
:103D300000000000FEFFFF3F000000E0FFFF00006A
:103D4000000000FCFF1F0000000080FFFF070000D4
:103D5000000080FFFF000000000080FF3F00000027
:103D6000000080FF07000000000080FF010000004D
:103D70000000803F000000000000800700000000FD
:103D800000008001000000000000000000000000B2
:103D900000001B0000000000000000000000000008
:103DA000000000800F0000003C0000800F000000B9
:103DB0003E0000800F0000803F0000800F0000E008
:103DC0003F0000800F0000F83F0000800F0000FE61
:103DD0003F0000800F0080FF3F0000800F00C0FF09
:103DE0003F0000800F00F0FF3F0000800F00FCFF4D
:103DF0003E0000800F00FF7F3E0000800FC0FF1FCD
:103E00003E0000800FF0FF073E0000800FFCFF0126
:103E10003E0000800FFE7F003E0000808FFF1F00ED
:103E20003E000080EFFF07003E000080FFFF010022
:103E30003E000080FF7F00003E000080FF1F00006A
:103E40003E000080FF0F00003E000080FF030000E6
:103E50003E000080FF0000003E0000803F000000A8
:103E60003E0000800F0000003E0000000000000047
:103E7000000000000000000000000017000000002B
:103E80000000000000000000000000000000000032
:103E90000000000000000000000000000000000022
:103EA0000000000000000000000000000000000012
:103EB00000000000FFFFFFFFFFFFFF03FFFFFFFF0A
:103EC000FFFFFF03FFFFFFFFFFFFFF03FFFFFFFFFA
:103ED000FFFFFF03FFFFFFFFFFFFFF03FFFFFFFFEA
:103EE000FFFFFF030F0000000000C0030F000000F1
:103EF0000000C0030F0000000000C0030F0000001E
:103F00000000C0030F0000000000C0030F0000000D
:103F10000000C0030F0000000000C0030F000000FD
:103F20000000C0030F0000000000C0030F000000ED
:103F30000000C003000000000000000000000000BE
:103F40000000000000000000000000000000000071
:103F50000000000000000000000000000000000061
:103F6000000000001B000000000000000000000036
:103F7000000000000080000000000000008003003E
:103F80000000000000800F000000000000803F00E3
:103F9000000000000080FF00000000000000FF03A0
:103FA000000000000000FC0F000000000000F03FD7
:103FB000000000000000C07F00000000000000FFC3
:103FC00001000000000000FC07000000000000F0FD
:103FD0001F000000000000E07F00000000000080E3
:103FE000FF01000000000000FE07000000000000CC
:103FF000F81F000000000000E07F0000000000004B
:1040000080FF01000000000000FE0700000000002B
:1040100000F81F000000000000E03F00000000006A
:1040200000803F000000000000003F000000000092
:1040300000003C0000000000000030000000000014
:104040000000000000000000000000000017000059
:104050000000000000000000000000000000000060
:104060000000000000000000000000000000000050
:104070000000000000000000000000000000000040
:104080000000000000000F0000000000C0030F004F
:1040900000000000C0030F0000000000C0030F007C
:1040A00000000000C0030F0000000000C0030F006C
:1040B00000000000C0030F0000000000C0030F005C
:1040C00000000000C0030F0000000000C0030F004C
:1040D00000000000C003FFFFFFFFFFFFFF03FFFF23
:1040E000FFFFFFFFFF03FFFFFFFFFFFFFF03FFFFD8
:1040F000FFFFFFFFFF03FFFFFFFFFFFFFF03FFFFC8
:10410000FFFFFFFFFF0300000000000000000000B1
:10411000000000000000000000000000000000009F
:10412000000000000000000000000000000000008F
:104130000000000000001D000080000000000000E2
:1041400000C000000000000000E0000000000000CF
:1041500000F000000000000000F800000000000077
:10416000007C000000000000003F00000000000094
:10417000801F000000000000C007000000000000D9
:10418000E003000000000000F0010000000000005B
:10419000FC000000000000007E00000000000000A5
:1041A0001F000000000000801F0000000000000051
:1041B0001F000000000000003E00000000000000A2
:1041C0007C00000000000000F8010000000000007A
:1041D000E003000000000000C00700000000000035
:1041E000800F000000000000001F00000000000021
:1041F000003E00000000000000F800000000000089
:1042000000F000000000000000E0000000000000DE
:1042100000C0000000000000008000000000001D41
:10422000000000000000F801000000000000F8019C
:10423000000000000000F801000000000000F8018C
:10424000000000000000F801000000000000F8017C
:10425000000000000000F801000000000000F8016C
:10426000000000000000F801000000000000F8015C
:10427000000000000000F801000000000000F8014C
:10428000000000000000F801000000000000F8013C
:10429000000000000000F801000000000000F8012C
:1042A000000000000000F801000000000000F8011C
:1042B000000000000000F801000000000000F8010C
:1042C000000000000000F801000000000000F801FC
:1042D000000000000000F801000000000000F801EC
:1042E000000000000000F801000000000000F801DC
:1042F000000000000000F801000000000000F801CC
:10430000000000000000F8011400000000000000A0
:10431000000000000000000000000000000000009D
:10432000000000000000000000000000000000008D
:10433000000000000000000000001F00000000005E
:1043400000001F000000000000001F00000000002F
:1043500000001F000000000000001E000000000020
:1043600000001E000000000000001E000000000011
:1043700000001E000000000000003E0000000000E1
:1043800000003C000000000000003C0000000000B5
:1043900000003C000000000000003C0000000000A5
:1043A00000003C00000000000000000000000000D1
:1043B00000000000000000000000000000000000FD
:1043C00000000000000000000000000000000000ED
:1043D00000000000000000000000000000000000DD
:1043E00000000000000000000000000000000000CD
:1043F000001C0000000000000000000000000000A1
:10440000000000000000FF010000000000E0FF07C6
:104410000000000000F0FF0F0000000000F8FF1F88
:10442000000000800FF8FF3F000000800FFCFF3FFE
:10443000000000800FFCFF3F000000800FFC013FE8
:10444000000000800FFC003E000000800F7C003E5A
:10445000000000800F7C003E000000800F7C003ECA
:10446000000000800F7C003E000000800F7C003EBA
:10447000000000800F7C003E000000800F7C003EAA
:10448000000000800F7C003E000000801F7C003E8A
:1044900000000080FFFFFF3F00000080FFFFFF3FA4
:1044A00000000080FFFFFF3F00000000FFFFFF3F14
:1044B00000000000FFFFFF3F00000000FEFFFF3F85
:1044C00000000000FCFFFF3F0000000000FEFF3F77
:1044D000000000000000000000001B0000000000C1
:1044E0000000000000000000000000E0FFFFFFFFF0
:1044F0003F0000E0FFFFFFFF3F0000E0FFFFFFFF86
:104500003F0000E0FFFFFFFF3F0000E0FFFFFFFF75
:104510003F0000E0FFFFFFFF3F0000E0FFFFFFFF65
:104520003F0000E0FFFFFFFF3F000000800F0000A2
:104530003E000000800F00003E000000800F0000E1
:104540003E000000800F00003E000000800F0000D1
:104550003E000000800F00003E000000800F0000C1
:104560003E000000800F00003E000000800F0000B1
:104570003E000000803F00803F00000080FFFFFF02
:104580003F00000080FFFFFF3F00000080FFFFFFB3
:104590003F00000000FFFFFF1F00000000FEFFFFC4
:1045A0000F00000000FCFFFF0700000000F0FFFF0D
:1045B00001000000000000000000000000000000FA
:1045C0000000001B000000000000000000000000D0
:1045D0000000000000000000000000000000F8FFE4
:1045E000FF0300000000FEFFFF0F00000000FFFFC0
:1045F000FF1F00000000FFFFFF1F00000080FFFF03
:10460000FF3F00000080FFFFFF3F00000080FFFF32
:10461000FF3F000000801F00803F000000800F006F
:10462000003E000000800F00003E000000800F00F0
:10463000003E000000800F00003E000000800F00E0
:10464000003E000000800F00003E000000800F00D0
:10465000003E000000800F00003E000000800F00C0
:10466000003E000000800F00003E000000800F00B0
:10467000003E000000800F00003E000000800F00A0
:10468000003E000000800F00003E000000800F0090
:10469000003E000000800F00003E0000000000000F
:1046A0000000000000000000000000001B000000EF
:1046B000000000000000000000000000000000C03A
:1046C000FF7F0000000000F8FFFF0300000000FE75
:1046D000FFFF0F00000000FFFFFF1F00000000FFB2
:1046E000FFFF1F00000080FFFFFF3F00000080FF72
:1046F000FFFF3F00000080FFFFFF3F000000801F22
:1047000000803F000000800F00003E000000800F8E
:1047100000003E000000800F00003E000000800FFF
:1047200000003E000000800F00003E000000800FEF
:1047300000003E000000800F00003E000000800FDF
:1047400000003E000000800F00003E0000E0FFFF80
:10475000FFFF3F0000E0FFFFFFFF3F0000E0FFFF23
:10476000FFFF3F0000E0FFFFFFFF3F0000E0FFFF13
:10477000FFFF3F0000E0FFFFFFFF3F0000E0FFFF03
:10478000FFFF3F00000000000000000000000000EC
:1047900000000000001B00000000000000000000FE
:1047A0000000000000000000E0FFFF00000000002B
:1047B000FCFFFF0700000000FEFFFF0F00000000ED
:1047C000FFFFFF1F00000000FFFFFF1F0000008031
:1047D000FFFFFF3F00000080FFFFFF3F0000008061
:1047E000FFFFFF3F000000800FF0013F000000804E
:1047F0000FF0013E000000800FF0013E000000803D
:104800000FF0013E000000800FF0013E000000802C
:104810000FF0013E000000800FF0013E000000801C
:104820000FF0013E000000800FF0013E000000800C
:104830000FF0013E00000080FFFF013E00000080FD
:10484000FFFF013E00000080FFFF013E000000006E
:10485000FFFF013E00000000FFFF003E00000000DF
:10486000FE7F000000000000F81F000000000000B4
:1048700000000000000000000000000000001B001D
:104880000000000000000000000000000000000028
:10489000800F000000000000800F000000000000FA
:1048A000800F000000000000800F000000000000EA
:1048B000800F000000000000800F000000000000DA
:1048C000800F000000000000800F000000000000CA
:1048D000FFFFFFFF3F000080FFFFFFFF3F0000C022
:1048E000FFFFFFFF3F0000C0FFFFFFFF3F0000E0B2
:1048F000FFFFFFFF3F0000E0FFFFFFFF3F0000E082
:10490000FFFFFFFF3F0000E0870F0000000000E016
:10491000830F0000000000E0830F0000000000E0B3
:10492000830F0000000000E0830F0000000000E0A3
:10493000830F0000000000E0830F0000000000E093
:1049400003000000000000E003000000000000E0A1
:104950000300000000000000000000000000000054
:10496000000000000000001B00000000000000002C
:1049700000000000000000000000E0FFFF00000059
:104980000000FCFFFF0700000000FEFFFF0F00001B
:104990000000FFFFFF1F00000000FFFFFF1F0000DF
:1049A0000080FFFFFF3FE0030080FFFFFF3FE003C9
:1049B0000080FFFFFF3FE00300801F00003EE00398
:1049C00000800F00003EE00300800F00003EE00387
:1049D00000800F00003EE00300800F00003EE00377
:1049E00000800F00003EE00300800F00003EE00367
:1049F00000800F00003EE00300800F00003EF00347
:104A000000800F00003EF8030080FFFFFFFFFF0360
:104A10000080FFFFFFFFFF030080FFFFFFFFFF039A
:104A20000080FFFFFFFFFF010080FFFFFFFFFF018E
:104A30000080FFFFFFFFFF000080FFFFFFFF1F0060
:104A40000000000000000000000000000000000066
:104A50001B0000000000000000000000000000003B
:104A600000E0FFFFFFFF3F0000E0FFFFFFFF3F0010
:104A700000E0FFFFFFFF3F0000E0FFFFFFFF3F0000
:104A800000E0FFFFFFFF3F0000E0FFFFFFFF3F00F0
:104A900000E0FFFFFFFF3F0000E0FFFFFFFF3F00E0
:104AA0000000800F000000000000800F00000000E8
:104AB0000000800F000000000000800F00000000D8
:104AC0000000800F000000000000800F00000000C8
:104AD0000000800F000000000000800F00000000B8
:104AE0000000800F000000000000803F0000000078
:104AF000000080FFFFFF3F00000080FFFFFF3F003E
:104B0000000080FFFFFF3F00000000FFFFFF3F00AD
:104B1000000000FFFFFF3F00000000FEFFFF3F001E
:104B2000000000F8FFFF3F00000000000000000050
:104B30000000000000000000001B0000000000005A
:104B40000000000000000000000000800F00003E98
:104B5000000000800F00003E000000800F00003EBB
:104B6000000000800F00003E000000800F00003EAB
:104B7000000000800F00003E000000800F00003E9B
:104B8000000000800F00003E0000E0870F00003EA4
:104B90000000E087FFFFFF3F0000E087FFFFFF3FCF
:104BA0000000E087FFFFFF3F0000E087FFFFFF3FBF
:104BB0000000E087FFFFFF3F0000E087FFFFFF3FAF
:104BC0000000E087FFFFFF3F0000E0070000003E1D
:104BD000000000000000003E000000000000003E59
:104BE000000000000000003E000000000000003E49
:104BF000000000000000003E000000000000003E39
:104C0000000000000000003E000000000000003E28
:104C10000000000000000000000000000000000094
:104C2000000019000000000000000000000000006B
:104C30000000000000000000000000000000000074
:104C40000000000000000000000000000000000064
:104C500000000000800F000000E00300800F000053
:104C600000E00300800F000000E00300800F000060
:104C700000E00300800F000000E00300800F000050
:104C800000E00300800F000000E00300800F000040
:104C900000E00300800F000000E00300800F000030
:104CA00000F003E087FFFFFFFFFF03E087FFFFFF48
:104CB000FFFF03E087FFFFFFFFFF03E087FFFFFF2A
:104CC000FFFF03E087FFFFFFFFFF01E087FFFFFF1C
:104CD000FFFF00E087FFFFFFFF7F00E087FFFFFF90
:104CE000FF0F00E0070000000000000000000000CF
:104CF00000000000000000000000000000000000B4
:104D000000000000000000000000001C0000000087
:104D1000000000000000000000000000E0FFFFFFB6
:104D2000FF3F0000E0FFFFFFFF3F0000E0FFFFFF4D
:104D3000FF3F0000E0FFFFFFFF3F0000E0FFFFFF3D
:104D4000FF3F0000E0FFFFFFFF3F0000E0FFFFFF2D
:104D5000FF3F0000000000FC01000000000000FE1A
:104D600003000000000000FF0F000000000080FFB3
:104D70001F0000000000E0FF3F0000000000F0FF07
:104D8000FF0000000000F88FFF0100000000FC079A
:104D9000FF0300000000FE03FE0F00000080FF0183
:104DA000FC1F00000080FF00F03F000000803F007B
:104DB000E03F000000801F00C03F000000800F00A7
:104DC000803F000000800700003E000000800300DC
:104DD000003C00000080000000380000008000005F
:104DE0000030000000000000002000000000000073
:104DF000000000001B000000000000000000000098
:104E00000000000000E0030000003E0000E003009E
:104E100000003E0000E0030000003E0000E0030050
:104E200000003E0000E0030000003E0000E0030040
:104E300000003E0000E0030000003E0000E0030030
:104E400000003E0000E0030000003E0000E0FFFF25
:104E5000FFFF3F0000E0FFFFFFFF3F0000E0FFFF1C
:104E6000FFFF3F0000E0FFFFFFFF3F0000E0FFFF0C
:104E7000FFFF3F0000E0FFFFFFFF3F0000E0FFFFFC
:104E8000FFFF3F000000000000003E0000000000A7
:104E900000003E000000000000003E000000000096
:104EA00000003E000000000000003E000000000086
:104EB00000003E000000000000003E000000000076
:104EC00000003E000000000000003E000000000066
:104ED000000000000000000000000000001C0000B6
:104EE0000000000000000000000000000000008042
:104EF000FFFFFF3F00000080FFFFFF3F000000803A
:104F0000FFFFFF3F00000080FFFFFF3F0000008029
:104F1000FFFFFF3F00000080FFFFFF3F0000008019
:104F2000FFFFFF3F000000800F0000000000008036
:104F30000F000000000000800F0000000000008053
:104F4000FFFFFF3F00000080FFFFFF3F00000080E9
:104F5000FFFFFF3F00000080FFFFFF3F00000080D9
:104F6000FFFFFF3F000000800F00000000000080F6
:104F70000F000000000000800F0000000000008013
:104F80001F00000000000080FFFFFF3F00000080C6
:104F9000FFFFFF3F00000000FFFFFF3F0000000099
:104FA000FFFFFF3F00000000FEFFFF3F000000008A
:104FB000FCFFFF3F0000000080FFFF3F00000000FB
:104FC0000000000000001B000000000000000000C6
:104FD000000000000000000080FFFFFF3F00000015
:104FE00080FFFFFF3F00000080FFFFFF3F00000049
:104FF00080FFFFFF3F00000080FFFFFF3F00000039
:1050000080FFFFFF3F00000080FFFFFF3F00000028
:1050100080FFFFFF3F000000800F00000000000045
:10502000800F000000000000800F00000000000062
:10503000800F000000000000800F00000000000052
:10504000800F000000000000800F00000000000042
:10505000800F000000000000800F00000000000032
:10506000803F00000000000080FFFFFF3F000000C5
:1050700080FFFFFF3F00000080FFFFFF3F000000B8
:1050800000FFFFFF3F00000000FFFFFF3F000000A8
:1050900000FEFFFF3F00000000F8FFFF3F000000A0
:1050A0000000000000000000000000000000001CE4
:1050B00000000000000000000000000000000000F0
:1050C0000000F8FFFF0300000000FEFFFF0F0000DC
:1050D0000000FFFFFF1F00000000FFFFFF1F000098
:1050E0000080FFFFFF3F00000080FFFFFF3F000048
:1050F0000080FFFFFF3F000000803F00803F000076
:1051000000800F00003E000000800F00003E000005
:1051100000800F00003E000000800F00003E0000F5
:1051200000800F00003E000000800F00003E0000E5
:1051300000800F00003E000000800F00003E0000D5
:1051400000800F00003E000000801F00003F0000B4
:105150000080FFFFFF3F00000080FFFFFF3F0000D7
:105160000080FFFFFF3F00000000FFFFFF1F000067
:105170000000FFFFFF1F00000000FEFFFF0F000008
:105180000000FCFFFF0700000000E0FFFF00000040
:1051900000000000000000001C00000000000000F3
:1051A0000000000000000000000080FFFFFFFFFF84
:1051B000030080FFFFFFFFFF030080FFFFFFFFFFF3
:1051C000030080FFFFFFFFFF030080FFFFFFFFFFE3
:1051D000030080FFFFFFFFFF030080FFFFFFFFFFD3
:1051E0000300800F00003E000000800F00003E0022
:1051F0000000800F00003E000000800F00003E0015
:105200000000800F00003E000000800F00003E0004
:105210000000800F00003E000000800F00003E00F4
:105220000000800F00003E000000800F00003E00E4
:105230000000801F00003F00000080FFFFFF3F00D4
:10524000000080FFFFFF3F00000080FFFFFF3F00E6
:10525000000000FFFFFF1F00000000FFFFFF1F0016
:10526000000000FEFFFF0F00000000F8FFFF03003A
:1052700000000000FE0F0000000000000000000021
:10528000001B000000000000000000000000000003
:1052900000000000C0FF7F0000000000FCFFFF07CF
:1052A00000000000FEFFFF0F00000000FFFFFF1FD7
:1052B00000000000FFFFFF1F00000080FFFFFF3F16
:1052C00000000080FFFFFF3F00000080FFFFFF3F66
:1052D000000000801F00003F000000800F00003E23
:1052E000000000800F00003E000000800F00003E24
:1052F000000000800F00003E000000800F00003E14
:10530000000000800F00003E000000800F00003E03
:10531000000000800F00003E000000800F00003EF3
:1053200000000080FFFFFFFFFF030080FFFFFFFF83
:10533000FF030080FFFFFFFFFF030080FFFFFFFF71
:10534000FF030080FFFFFFFFFF030080FFFFFFFF61
:10535000FF030080FFFFFFFFFF03000000000000CD
:10536000000000000000000000001A000000000023
:10537000000000000000000000000000000000002D
:105380000000000000E0FFFF3F00000000F8FFFF0A
:105390003F00000000FEFFFF3F00000000FEFFFF97
:1053A0003F00000000FFFFFF3F00000000FFFFFF85
:1053B0003F00000080FFFFFF3F00000080FFFFFF75
:1053C0003F000000801F000000000000800F000070
:1053D00000000000800F000000000000800F0000AF
:1053E00000000000800F000000000000800F00009F
:1053F00000000000800F000000000000800F00008F
:1054000000000000800F000000000000800F00007E
:1054100000000000800F000000000000800F00006E
:1054200000000000800F000000000000800F00005E
:1054300000000000800F00000000000000000000DD
:10544000000000000000000000000000000000005C
:105450000000001C00000000000000000000000030
:10546000000000000000F81F000000000000FE7FA8
:10547000003E00000000FFFF003E00000000FFFFB4
:10548000003E00000080FFFF013E00000080FFFFA3
:10549000013E000000801FFC013E000000800FF86C
:1054A000013E000000800FF8013E000000800FF870
:1054B000013E000000800FF8013E000000800FF860
:1054C000013E000000800FF8013E000000800FF850
:1054D000013E000000800FF8013E000000800FF840
:1054E000013E000000800FF8013E000000800FF830
:1054F000013E000000800FF8033F000000800FF81D
:10550000FF3F000000800FF8FF3F000000800FF019
:10551000FF1F000000800FF0FF1F000000800FE061
:10552000FF0F000000000080FF03000000000000EB
:105530007C00000000000000000000001B000000D4
:105540000000000000000000000000000000800FCC
:10555000000000000000800F000000000000800F2D
:10556000000000000000800F000000000000800F1D
:10557000000000000000800F000000000000800F0D
:10558000000000000000800F000000000080FFFF0E
:10559000FFFF07000080FFFFFFFF1F000080FFFFED
:1055A000FFFF1F000080FFFFFFFF3F000080FFFFA5
:1055B000FFFF3F000080FFFFFFFF3F000080FFFF75
:1055C000FFFF3F000000800F00003F000000800F41
:1055D00000003E000000800F00003E000000800F31
:1055E00000003E000000800F00003E000000800F21
:1055F00000003E000000800F000000000000800F4F
:10560000000000000000800F000000000000800F7C
:10561000000000000000000000000000000000008A
:1056200000000000001B000000000000000000005F
:105630000000000000000080FFFFFF01000000806C
:10564000FFFFFF0700000080FFFFFF1F000000803A
:10565000FFFFFF1F00000080FFFFFF3F00000080F2
:10566000FFFFFF3F00000080FFFFFF3F0000000042
:105670000000C03F000000000000003E00000000ED
:105680000000003E000000000000003E000000009E
:105690000000003E000000000000003E000000008E
:1056A0000000003E000000000000003E000000007E
:1056B0000000003E000000000000003E000000006E
:1056C0000000003E00000080FFFFFF3F0000008060
:1056D000FFFFFF3F00000080FFFFFF3F0000008052
:1056E000FFFFFF3F00000080FFFFFF3F0000008042
:1056F000FFFFFF3F00000080FFFFFF3F00000000B2
:1057000000000000000000000000000000001C007D
:105710000000000000000000800100000000000008
:10572000800F00000000000080FF0000000000006B
:1057300080FF07000000000080FF7F0000000000E5
:1057400080FFFF030000000080FFFF1F000000003B
:1057500080FFFFFF0100000000F8FFFF0F000000C6
:105760000080FFFF3F0000000000F8FF3F00000046
:10577000000080FF3F000000000000F83F00000034
:10578000000000803F000000000000F03F0000002B
:10579000000000FF3F0000000000F0FF3F0000009D
:1057A0000000FFFF3F00000000F0FFFF3F0000008F
:1057B00000FFFFFF0300000080FFFF7F00000000EC
:1057C00080FFFF070000000080FFFF0000000000D6
:1057D00080FF0F000000000080FF010000000000BB
:1057E000803F000000000000800300000000000077
:1057F000000000000000001D00800000000000000C
:1058000000807F00000000000080FF7F000000009B
:105810000080FFFF7F0000000080FFFFFF3F0000CF
:105820000080FFFFFF3F00000080FFFFFF3F000000
:105830000080FFFFFF3F0000000000C0FF3F0000AE
:1058400000000000F03F000000000080FF3F00006B
:10585000000000F8FF3F0000000080FFFF1F000075
:10586000000080FFFF000000000080FF0700000034
:10587000000080FF7F000000000080FFFF0F00009D
:10588000000000FEFF3F0000000000C0FF3F0000DE
:1058900000000000F83F000000000000FC3F000096
:1058A0000000F8FFFF3F00000080FFFFFF3F000007
:1058B0000080FFFFFF3F00000080FFFFFF3F000070
:1058C0000080FFFFFF0300000080FFFF03000000D7
:1058D0000080FF03000000000080030000000000C3
:1058E0001C000000000000000000800000002000FC
:1058F00000008001000030000000800700003C0034
:105900000000800F00003E000000803F00803F004C
:10591000000080FF00E03F00000080FF01F03F003A
:10592000000080FF07FC3F00000000FE0FFF1F008B
:10593000000000FCBFFF0700000000F0FFFF0100B7
:10594000000000C0FF7F000000000080FF1F00007B
:1059500000000000FE07000000000000FF1F000024
:1059600000000080FF7F0000000000E0FFFF01005A
:10597000000000F8FFFF0300000000FC0FFF0F0015
:10598000000000FF07FC3F00000080FF01F83F001F
:10599000000080FF00E03F000000803F00C03F00AB
:1059A0000000801F00003F000000800700003C0056
:1059B000000080030000380000008000000020008C
:1059C0000000000000000000001D000000000000BA
:1059D0000000008001000000000000800F000000B7
:1059E000000000807F00000000000080FF01000038
:1059F00000000080FF0F000000000080FF7F00001B
:105A000000000080FFFF030000030080FFFF1F0075
:105A1000E0030000FEFF7F00F8030000F0FFFF033B
:105A2000FF03000080FFFFDFFF03000000FCFFFF1B
:105A3000FF03000000E0FFFFFF0100000000FFFF88
:105A40007F0000000000F8FF0F0000000000FEFFD4
:105A50000100000000C0FF3F0000000000F8FF0749
:105A60000000000000FFFF0100000000E0FF3F0019
:105A700000000000FCFF070000000080FFFF0000A6
:105A800000000080FF3F000000000080FF070000D2
:105A900000000080FF000000000000801F000000E8
:105AA00000000080030000000000008000000000F3
:105AB00000001A00000000000000000000000000CC
:105AC000000000000000000000000000800F000047
:105AD0003C000000800F00003E000000800F0080AE
